:100000000C942A000C9447000C9447000C94470071
:100010000C9447000C9447000C9447000C94470044
:100020000C9447000C9447000C9447000C94470034
:100030000C9447000C9447000C9447000C94470024
:100040000C9447000C9447000C9447000C94470014
:100050000C94470011241FBECFE5D8E0DEBFCDBF12
:1000600010E0A0E6B0E0E8E2F5E002C005900D92F5
:10007000A238B107D9F720E0A2E8B0E001C01D9294
:10008000A238B207E1F70E946C010C9492020C9422
:1000900000008FEF8ABB9FE097BB14BA81BB1BBAED
:1000A00018BA15BA12BA0895823089F120F4813055
:1000B00009F09DC007C0833009F44FC0843009F0B7
:1000C00096C071C0442319F0413009F510C04BB3FC
:1000D000262F30E02150310981E090E002C0880FE6
:1000E000991F2A95E2F7809584238BBB15C07BB3BB
:1000F000262F30E02150310941E050E0CA0102C012
:10010000880F991F2A95E2F7872B8BBB16C04423D3
:1001100019F0413011F511C078B3462F50E041502D
:10012000510981E090E09C0102C0220F331F4A95E3
:10013000E2F72095272328BB15C088B3462F50E04F
:1001400041505109E1E0F0E09F0102C0220F331F4E
:100150004A95E2F7282B28BB16C0442319F04130FA
:1001600011F511C085B3462F50E041505109E1E02F
:10017000F0E09F0102C0220F331F4A95E2F720955D
:10018000282325BB15C085B3462F50E041505109A7
:10019000E1E0F0E09F0102C0220F331F4A95E2F731
:1001A000282B25BB16C0442319F0413001F511C09E
:1001B00022B370E06150710981E090E0AC0102C0AF
:1001C000440F551F6A95E2F7BA016095622362BB3E
:1001D0000EC042B370E06150710921E030E0C90106
:1001E00002C0880F991F6A95E2F7842B82BB80E0DA
:1001F0000895823021F120F4813009F06BC006C0EF
:100200008330B1F1843009F065C04BC0E9B370E0D0
:100210006150710921E030E0C901062E02C0880F4B
:10022000991F0A94E2F78E2390E09C0102C0359555
:1002300027956A95E2F7FA01208381E00895E6B3F5
:1002400070E06150710921E030E0C901062E02C062
:10025000880F991F0A94E2F78E2390E09C0102C058
:10026000359527956A95E2F7FA01208381E0089594
:10027000E3B370E06150710921E030E0C901062E5E
:1002800002C0880F991F0A94E2F78E2390E09C0128
:1002900002C0359527956A95E2F7FA01208381E03F
:1002A0000895E0B370E06150710921E030E0C901C8
:1002B000062E02C0880F991F0A94E2F78E2390E061
:1002C0009C0102C0359527956A95E2F7FA012083D3
:1002D00081E0089580E00895CF93DF9300D000D0AF
:1002E00000D0CDB7DEB70E94DC010E9449007E013C
:1002F00027E0E20EF11CAE014F5F5F4F61E084E04A
:100300000E94F90089818130B1F780E80E94BD0127
:1003100080E790E00E940F0287EA91E60197F1F7EB
:1003200000C0000080EC0E94BD018E010D5F1F4FD8
:10033000CE0102960E9424029FE6E1E1F1E0915095
:10034000E040F040E1F700C000008A81F8018193AD
:100350008F010E94F8010E151F0551F78B81813026
:1003600031F441E064E084E00E945400C4CF41E0F5
:1003700067E084E00E945400BECF982F907F9BBB23
:10038000C198C298C39A00C000C00000C39891E20F
:100390009A95F1F700008295807F8BBBC39A00C0CD
:1003A00000C00000C39881E28A95F1F7000008952B
:1003B00081E00E94BD0108958FEF8ABB87BBC3987F
:1003C00083E30E94BD0182E30E94BD0188E20E9496
:1003D000BD018EE00E94BD010E94D80183EF91E033
:1003E0000197F1F700C0000086E00E94BD0108956A
:1003F000982F907F9BBBC19AC298C39A00C000C03F
:100400000000C3988295807F8BBBC39A00C000C058
:100410000000C39881E28A95F1F700000895CF9318
:10042000DF93EC018881882361F021960E94F80116
:1004300081E19AE70197F1F700C0000089918111ED
:10044000F5CFDF91CF9108958F929F92AF92BF9297
:10045000CF92DF92EF92FF920F931F93CF93DF9390
:10046000CDB7DEB765970FB6F894DEBF0FBECDBF30
:100470005C0180EF85BB8FE78A838FEB8B838FEDE9
:100480008C838FEE8D8380E1E0E6F0E0DE0116964E
:1004900001900D928A95E1F77E0182E0E80EF11C51
:1004A00000E010E0882483946801F70181917F01C6
:1004B00085BB982CAE014F5F5F4F692D83E00E9492
:1004C000F9008981813051F09394F5E09F12F2CFC9
:1004D0000F5F1F4F0430110539F710C0F601EE0F02
:1004E000FF1FEE0FFF1F81E090E08C0F9D1FE80FB4
:1004F000F91FE90DF11D8481F501808380E0659687
:100500000FB6F894DEBF0FBECDBFDF91CF911F9124
:100510000F91FF90EF90DF90CF90BF90AF909F90A2
:080520008F900895F894FFCFBD
:100528000A0302010B0605040C0908070D0F000E4B
:1005380020456E7472652050696E20636F64652073
:020548000000B1
:00000001FF
